:040000006F00405DF0
:100004000000000000000000C8020000CA02000056
:1000140000000000D2050000000000000000000005
:10002400D2050000D205000000000000000000001E
:10003400D205000000000000D2050000000000000E
:10004400D2050000D2050000D2050000D205000050
:10005400D2050000D2050000D2050000D205000040
:10006400D2050000D2050000D2050000D205000030
:10007400D2050000D2050000D2050000D205000020
:10008400D2050000D2050000D2050000D205000010
:10009400D2050000D2050000D2050000D205000000
:1000A400D2050000A80F0000D2050000D205000010
:1000B400D2050000D2050000D2050000D2050000E0
:1000C400D2050000D2050000D2050000D2050000D0
:1000D400D2050000DC0F0000D2050000D2050000AC
:1000E400220F0000D2050000D2050000D205000056
:1000F400D2050000D2050000D2050000D2050000A0
:1001040000000000D2050000D2050000D205000066
:10011400D2050000D2050000C80F0000D20500007F
:10012400D2050000D2050000D2050000D20500006F
:10013400D2050000D2050000D2050000D20500005F
:10014400D2050000D2050000D2050000D20500004F
:10015400D2050000D2050000D2050000D20500003F
:10016400D2050000D2050000D2050000D20500002F
:10017400D2050000D2050000D2050000D20500001F
:10018400D2050000D2050000D2050000D20500000F
:10019400D2050000D2050000D2050000D2050000FF
:1001A400000000000000000000000000000000004B
:0C01B4000000000000000000000000003F
:1001C000397101436EC619A0397141536AC866CAB4
:1001D00062CC5ECE19A0397101535AD056D252D496
:1001E0004ED64AD826DA22DC06DE3301614082820E
:1001F00041114AC026C222C406C68282B24D4101C4
:10020000024D924C224CB24B4101024B924A224A7F
:10021000B2494101024992442244B24041018280E4
:100220003D432A876373C3029377F700BDEFADE5C3
:10023000937606FF3D8ABA960CC34CC30CC74CC7D5
:100240004107E36BD7FE11E28280B306C3408A0602
:100250009702000096966780A6002307B700A306C2
:10026000B7002306B700A305B7002305B700A30412
:10027000B7002304B700A303B7002303B700A3020A
:10028000B7002302B700A301B7002301B700A30002
:10029000B7002300B700828093F5F50F9396850091
:1002A000D58D93960501D58D61B79396270097025A
:1002B000000096968682E78086FA9680C1171D8F89
:1002C0003E96E374C3F8A5B701A0B707EFBE37E7C2
:1002D00000E0938707083CC701A0EFF2DFEF411170
:1002E000E92009452D297D2AEF003053716513055A
:1002F0000520EF00F05BEF007011AA8913052100C3
:10030000EF00F0023000930561002A894800EF00F9
:10031000B007AA841306E1006C001305A100EF00EA
:10032000D00A2A84639F090437350000130545C8A5
:10033000EF10D007631C0904373500001305C5CA48
:10034000EF10D006A9E837350000130505CEEF10F1
:10035000F00539E437350000130545D1EF101005DD
:10036000930440063734000083152100130584D41C
:10037000B3C59502EF10900313054006EF00F04F50
:10038000E5B737350000130585C95DB7373500007F
:10039000130585CC75B7373500001305C5CF45BFAC
:1003A00037350000130505D355BFB71702409843F2
:1003B000B706FFF041111367170098C3D8433706FB
:1003C0000200758FD8C39843B706F7FEFD16758FE8
:1003D00098C39843B706FCFFFD16758F98C3D843A2
:1003E000B70601FFFD16758FD8C39843B70600EC1A
:1003F000FD16758F98C33707FF0098C723A607021D
:1004000002C402C69843C166558F98C3B71602400E
:1004100005679C42F18F3EC6A24785073EC4B2479E
:1004200081E7A247E397E7FEB71702409C43139783
:10043000E7006357070685473EC632478547631F77
:10044000F704B7170240D843B706C1FFFD16D8C35B
:10045000D843D8C3D84313670740D8C3D843758F50
:10046000D8C3D843B7062900558FD8C39843B706D9
:100470000001558F98C3984393166700E3DD06FE8D
:10048000D843B7160240719BD8C3D84313672700DF
:10049000D8C32147DC42B18BE39EE7FE4101828055
:1004A00002C661BFB7160240D842B7070020114606
:1004B000318B938707086305C70021466308C7028D
:1004C00037177A001307072098C33717024058439D
:1004D00011839376F700370700201307070036973C
:1004E000142398433357D70098C38280D842D4420C
:1004F000416649833D8BF18E1306270015CF3D479A
:10050000630FE6024147630FE602454781456313E7
:10051000E6004146A1E23747024003270780418BAE
:100520000DC737177A00130707203306C70290C399
:10053000C9DD9843058349BF81454946E1BF8545EB
:100540003546C9BF81453D46F1B737173D00130712
:100550000790E1BF3715024058559316F7005855DC
:1005600063DF060411833D8B9306170037177A006B
:10057000130707203357D70298C35455A182BD8A69
:100580008DE295463307D702058398C3371702409B
:10059000585794433D8B050733D7E60298C39843D9
:1005A00069B705456394A600E546E9BF3D456396F6
:1005B000A600D1463387E602C9BF8906E5BF3D8B59
:1005C0009306170037177A00130707203357D7020F
:1005D000F1B701A0970100209381C12A1781002063
:1005E000130141A2173500001305059E9705002051
:1005F000938545A11386818163FAC5008322050096
:1006000023A0550011059105E3EAC5FE13858181FC
:10061000938541896377B500232005001105E36DBB
:10062000B5FEFD42739002BCAD4273904280B7624A
:100630000000938282087390023097020000938238
:10064000A29C93E2320073905230EFF01FD69702D3
:1006500000009382C2C873901234730020309C450E
:1006600013F7070113F8F70001C7D8413368E80012
:100670008E2113F7F50F39C318418146854E3D4F42
:10068000930F800293028004214E3396DE00B3F86C
:10069000C500631116039398260033131F011343FB
:1006A000F3FF3377E300B318180133E7E800639FE3
:1006B000F70550C98506E39AC6FD18C11307F00F68
:1006C0006375B70454412146854E3D4F930F800218
:1006D00093028004414EB398CE0033F71501639224
:1006E000E8021317260001173313EF001343F3FF3B
:1006F000B376D3003317E800D98E639DF701232A20
:1007000015010506E319C6FD54C18280E39457FA2A
:1007100010C94DB7E39757FE23281501DDB723AC69
:10072000A1808280371702405C439146B18B63857C
:10073000D700A1466382D706B7177A0093870720B0
:100740001CC1371602405C4237070020130707011F
:100750009183BD8BBA9794231C41B3D7D7005CC15A
:100760005442A1829D8ABA969422B3D6D70014C56A
:100770005442AD829D8A36971823B3D7E7005CC5F3
:100780005842398393763700138741803697182370
:10079000B3D7E7021CC982805C435843C166C98352
:1007A000758FB7F6FF1F83A6C670BD8B890713969A
:1007B000160163480600C54601466392D702C94741
:1007C00039A88946638FD702BD46638ED702C146DA
:1007D000638ED702C54601466393D700C1471DEF1C
:1007E0003747024003270780418B05C737177A0038
:1007F00013070720B307F7021CC121D61C418583CC
:1008000081B701466DBF0546B547D1BF0146BD471B
:10081000F9B737173D0013070790E9BFB715024036
:10082000D8559316F700D85563DF060411833D8B26
:100830009306170037177A00130707203357D7029C
:1008400018C1D455A182BD8A8DE295463307D702DF
:10085000058318C137170240585714413D8B0507CF
:1008600033D7E60218C1184171B785456394B600C5
:10087000E546E9BFBD456396B600D1463387E6023B
:10088000C9BF8906E5BF3D8B9306170037177A006D
:10089000130707203357D702F1B799C5371702401E
:1008A0001C4F5D8D08CF8280B7170240984F1345CB
:1008B000F5FF798D88CF8280EFF29F931629F57727
:1008C000FD17F58FF621DA257971D58F1EA95625EA
:1008D000FD779387379FF58FD6212A842EC6D58F33
:1008E0009625D58FB625D58F5EA55E29C207C18313
:1008F00093F7F7CFD98F5EA968082D35B747014028
:1009000093870780B245631DF402A2576547B387FA
:10091000E7029841930640060A07B3D7E70233D7A8
:10092000D702B3F7D7021207920793872703B3D7EB
:10093000D702BD8BD98FC207C1831EA44561D9B828
:100940009257E9B791C55E250967D98F5EA5828068
:100950005A25F977FD17F98FD5BF93F5F51F4EA1ED
:1009600082800A216D8D3335A0008280EFF25F888E
:1009700041112EC4B28436842AC6412E324505491F
:1009800006051375E50FC921AD29A245631625019A
:10099000752609454101BDB82E857D219D21E309BC
:1009A00025FFA294054963958400492E0145DDB7D2
:1009B000082005045129B121E31725FFD1BFEFF22B
:1009C0003F834111D0879306F10005464537410129
:1009D0006FF05F84EFF23F804111AA842EC632840B
:1009E000368986041D2613F5E40FB929192985498E
:1009F000B2456318350199260944228541016FF0FB
:100A0000DF802E859121F52EE30735FFFD2C13E5C0
:100A100014001375F50F0D29ED26E30E35FD19E0D1
:100A2000312EE1BF133524001345150051297D14E3
:100A30002300A9001374F40F0509D5B7EFF24FFB9B
:100A4000B2860546413F6FF0EFFCEFF26FFA1306F6
:100A500000089305B0061305800695371305400678
:100A6000EF00A06101469305B00613058006813FA3
:100A70006FF04FFAEFF2CFF7131635001376860FAB
:100A8000ED4513058006253F6FF0CFF8EFF24FF6E6
:100A9000131635001376860FF145130580060537CA
:100AA0006FF04FF7EFF2CFF49307B00B054663E515
:100AB000A70293071006094663E0A7029307900276
:100AC0000D4663EBA700CD47114663E7A700A54796
:100AD000154663E3A7001946E94513058006C535A9
:100AE0006FF04FF3EFF2CFF0114791476363E500EA
:100AF000AA873E851317050141839307803E63F45F
:100B0000E7001305803E1314050141801306803E63
:100B100033468602E545130580067D161376F60FEB
:100B2000793D01E513551400B53F6FF0AFEEEFF2DC
:100B30002FEC4111AA847400094693051004130593
:100B40008006493D2A840DED08869C8622055D8D30
:100B500042054185EF005072B737000083A5C7D525
:100B6000EF009017B737000083A507D60925B737E0
:100B7000000083A547D6EF001041EF00D0698AA09E
:100B8000228541016FF00FE9EFF28FE641112A89CA
:100B9000AE84328434001946930530041305800670
:100BA000153D0DE11C849884A207D98F2310F9000C
:100BB0001C859885A207D98F9EA01C869886A207BF
:100BC000D98F1EA041016FF0EFE4EFF26FE2411107
:100BD0002A89AE843284340019469305B003130584
:100BE0008006CD3B0DE11C849884A207D98F231089
:100BF000F9001C859885A207D98F9EA01C8698862F
:100C0000A207D98F1EA041016FF0CFE0EFF24FDEB7
:100C1000B7170240984FB7060300411113678700CA
:100C200098CF984F1367170098CFB717014003A7C5
:100C30004780558F23A2E78003A74780B706F4FFBC
:100C4000FD16758F23A2E78003A7C780FD76FD16EA
:100C5000758F23A6E7805120CD3B0D45213D0145F1
:100C6000353513052003BD3D01469305800313056B
:100C70008006B13301469305A00613058006813333
:100C800001469305300213058006153B1306000844
:100C900093057003130580061D331306F1009305B9
:100CA000500713058006593B988793078006054532
:100CB0006312F70205469305B0061305800601335B
:100CC00001469305C00613058006D5391305200398
:100CD000113D014541016FF0EFD3371702401C4F22
:100CE000B706007793E787001CCFB717014003A72B
:100CF00007C0558F23A0E7C003A707C0B706007839
:100D0000FD16758F23A0E7C08280EFF26FCE3714F7
:100D100001408327C4C02945130404C093E7070892
:100D20005CC45C4493E707045CC4292E5C442945F9
:100D300093F7F7F75CC439266FF0CFCDEFF24FCBC6
:100D4000371401408327C4C02945130404C093E726
:100D500007045CC45C4493F7F7F75CC4E5245C4487
:100D6000294593E707085CC4F12C6FF0AFCAEFF296
:100D70002FC8371401408327C4C02945130404C079
:100D800093E707085CC45C4493F7F7FB5CC45D2CF5
:100D90005C44294593F7F7F75CC46D245C4429450E
:100DA00093E707045CC4792C5C44294593F7F7FB6F
:100DB0005CC4492C5C44294593E707085CC459246A
:100DC0006FF04FC5EFF2CFC2371401408327C4C084
:100DD0002945130404C093E707085CC45C4493F7F7
:100DE000F7FB5CC485245C44294593E707045CC495
:100DF000912C5C44294593F7F7FB5CC4A1246FF068
:100E00006FC1EFF2EFBE371401408327C4C02945FC
:100E1000130404C093E707085CC45C4493F7F7FB32
:100E20005CC40D245C44294593E707045CC4192C79
:100E300004445C44294593F7F7FB5CC4212413D593
:100E4000740005896FF00FBDEFF2EFB82A89A14455
:100E5000B7190140138409C05C44294593F7F7F79B
:100E60005CC45C4493F7F7FB5CC4E92A93178901DF
:100E7000E18763D307045C4493E707085CC4294512
:100E8000D12283A7C9C02945FD1493E7070423A6EF
:100E9000F9C04D2A83A7C9C02945060993F7F7FB76
:100EA00023A6F9C093F4F40F138409C0612A1379BF
:100EB000F90FCDF06FF06FB55C4493F7F7F77DBF96
:100EC000EFF26FB137140140AA892149814413041C
:100ED00004C05C442945860493F7F7FB5CC49D225B
:100EE0005C44294593F4F40F93E707045CC4992A02
:100EF0001C4493F7070899C393E414005C447D19DC
:100F0000294593F7F7FB5CC41379F90F252AE312FF
:100F100009FC639609007D3526856FF00FAF813D92
:100F2000E5BFB707014003A747411367074023AA5E
:100F3000E740B7270140938707809C4793F7074016
:100F400099C7EFF2EFAA054535206FF0AFAC82806C
:100F5000B717014003A7C7801345F5FF798D23A676
:100F6000A7808280B717014003A7C780598D23A6A9
:100F7000A7808280EFF2CFA7B71701409387078041
:100F80009C47E98F81E7F93F6FF0CFA8D137EDBFDC
:100F900037370140835707C0C207C183F99BC20797
:100FA000C1832310F7C08280EFF28FA4373701404E
:100FB000835707C1C207C183F99BC207C1832318A6
:100FC000F7C0F9376FF00FA5371700401E2BC20787
:100FD000C183F99BC207C1831EAB8280B747014022
:100FE00003D70780938607801377070201CF138703
:100FF000D181D22214239387C182B697850690A30C
:1010000014A3828003D70780418B19C783D7078039
:10101000DE220547238EE1808280B707002083A768
:10102000070837177A0013070720B3D7E70293F7AB
:10103000F70F2380F1821307803EB387E702239FD7
:10104000F1808280B7F700E0D8438146799BD8C30E
:1010500003C701823306A70290CBD4CB9843136712
:10106000070198C398431367170298C3D843058BA9
:1010700075DF9843799B98C38280B7F700E0D84327
:101080008146799BD8C303D7E1813306A70290CB71
:10109000D4CB98431367070198C39843136717028B
:1010A00098C3D843058B75DF9843799B98C382809A
:1010B000EFF20F942A841165011185451105EFF0B7
:1010C000CFFD930700207C82371501408D473EC439
:1010D0004C00E147130505803EC6EFF04FD822C80B
:1010E00037440140B70708000C08130504803ECCC4
:1010F00002CA231E0100EFF02FFC85451305048072
:10110000EFF05F8405616FF0EF90EFF2CF8CB744A2
:101110000140AE89328901449384048063452401EF
:101120004A856FF08F8E930500042685EFF07F834C
:101130007DD9B38789008385070026850504C2050C
:10114000C181EFF09F81D9BF138781801C439386B3
:1011500041893E95636BD500B78600209386068053
:1011600063E5A60008C33E858280FD57EDBF4111AF
:10117000370780007D1713D8750126C29354750177
:101180003373A70093F4F40FB376B7004AC0137813
:10119000F80F1359F50106C622C4FD819A872685EA
:1011A0004A86131E3300939E3600B3880441630AB7
:1011B000B90E6350100D630408149307F00F638B8E
:1011C000F414B7070004B3EEFE00ED4763C117291E
:1011D00093070002B3871741B397FE00B3D81E01EF
:1011E000B337F000B3E7F800B307FE40139757009A
:1011F000635E0718370400047D147D8C2285EF00A0
:1012000010146D15B317A4006348951A058D1304C7
:10121000150013070002018F3397E7003337E00012
:10122000B3D78700D98F814413F7770019C713F715
:10123000F70091466303D700910713975700635B4C
:10124000071485041307F00F4A866383E4169A0790
:10125000A58313F5F40FB2402244A6079314750139
:1012600013D59700458D7E0692440249518D410168
:1012700082806399080A138714001377E70F6317B6
:10128000071463900422630D0E1EE3860EFCB30761
:10129000DE411397570063500722B387CE412E8952
:1012A00061B7635C100B630E08089307F00F63834C
:1012B000F406B7070004B3EEFE00ED4763C9171F3D
:1012C00093070002B3871741B397FE00B3D81E01FE
:1012D000B337F000B3E7F800F2971397570063575E
:1012E000070A85041307F00F6384E40CB706007E39
:1012F00013D71700FD16858B758FD98F35B7638D82
:101300000E08FD18B307DE41E38208EE9307F00FE5
:10131000E39DF4EA630D030801461305F00FB707D8
:10132000400015BF33079840EDE863020E147D17A7
:10133000630807189307F00F6319F80E2E89368398
:10134000D1BF638B0E04FD18B307DE01E38708F8F5
:101350009307F00FE393F4F675BF639508088504CF
:1013600013F7E40F6313071263170510630F0E14CE
:10137000E3830EEEB307DE011397570081446357F2
:101380000700370700FC7D17F98F854413F77700B6
:10139000E31F07E813D337009307F00FE38CF4F64D
:1013A00093179300A58313F5F40F4A866DB54A860B
:1013B0001305F00F814745B5370700FC7D17F98FFE
:1013C00013F77700898CE31407E6E9B73304DE41AD
:1013D0009317540063C3070CE31204E2014601456E
:1013E000814795BD33079840ADC49307F00FE308DC
:1013F000F8F4B7070004336EFE00ED4763CCE70C4A
:1014000093070002998FB317FE003357EE00B337EE
:10141000F000D98FF697C284C9B59307F00FE30F98
:10142000F8F0B7070004336EFE00ED4763C3E7082A
:1014300093060002998EB316DE00B357EE003337E1
:10144000D000D98FB387FE40C2842E8945B385472B
:1014500061BB630E0E067D17B307DE01C284E30E87
:1014600007E69307F00FE31AF8F8368365B536837D
:10147000C2842E8915B7E3040EECE38D0EE869BD36
:10148000638D0E022E86B687F9B39307F00FE381C2
:10149000F4F2B307DE018583D5BD3384CE412E89B6
:1014A000B1BBE31C0EFCE3890EE62E8949BD8547DE
:1014B00025B5854741BFE39B07EC0146814761BBEA
:1014C000B387CE41C2842E8915B3B68769B33683FC
:1014D000C284D9B585473DBF3971935775014AD844
:1014E00056D25ECE931A95001359F50106DE22DC22
:1014F00026DA4ED652D45AD093F7F70F93DA9A00E1
:10150000CA8B638207121307F00F6384E7128E0AF7
:1015100037070004B3EAEA00138A17F80144014BC5
:1015200093D775019394950093F7F70FA58093D9FE
:10153000F501FDC71307F00F6387E7028E04938759
:1015400017F837070004D98C330AFA408146558CC6
:1015500017270000130787810A043A941C40334977
:101560003901BA978287130A1AF0F9E88946558C2F
:1015700017270000130787830A043A941C40334955
:101580003901BA97828701491307F00FB707400066
:1015900013959700F25062549317770125817E09C5
:1015A0005D8D33652501D2544259B259225A925A5F
:1015B000025BF24B216182801307F00F8147C9BFA4
:1015C000A68ACE8B368B89476309FB1A8D47E30CBD
:1015D000FBFA85476308FB0A1307FA0713F91B0098
:1015E0006355E01293F77A0099C793F7FA00914692
:1015F0006383D700910A93974A0063D90700B7071E
:1016000000F8FD17B3FAFA0013070A089307E00F72
:10161000E3C4E7FA93976A00A5831377F70F8DBFAA
:10162000B1E48546A9B763940A021144014A054B07
:10163000C5BD63990A002144130AF00F094BCDB5CB
:101640008D4631B73144130AF00F0D4BD1BD56858D
:101650002EC6F5219307B5FFB39AFA009307A0F8B9
:10166000338AA7400144014BB2455DBD2685C1299F
:101670001307B5FFB307AA00B394E400138A670702
:101680008146F1B513F91B000147814711B7416647
:10169000139554007D1693570501698E63FA9A0AD3
:1016A000B3D5FA027D1AD68601473388C502B3F650
:1016B000F602C206558F637B07012A979386F5FFD2
:1016C0006368A70A6376070BF9152A973307074162
:1016D000B356F7023377F702B38AC60293170701AE
:1016E00063FB5701AA971387F6FF63E1A70863FF1F
:1016F0005707F916AA97C205B38A5741D58DB33A51
:101700005001B3EA5501CA8BC1BD8546998E11C7F8
:101710006D4601478147E34DD6E6130AEA09339A3D
:101720004A01B3D7DA00B33A4001B3E7570113F7E0
:10173000770019C713F7F70091466303D7009107A5
:1017400013975700634807029A07A583014789B595
:1017500093D61A00B3D5F6021397FA014183338862
:10176000C502B1B7CE8B368B814AB1BDBA8661B79F
:10177000B685A9BF0547814721BD13F91B00130793
:10178000F00F814731B5797122D4135475014ECED3
:1017900052CC9319950006D626D24AD056CA5AC8BA
:1017A0001374F40F93D99900135AF50169C4930780
:1017B000F00F6308F40E9397390037070004B3E97C
:1017C000E700130414F88144014B13D77501939A71
:1017D00095001377F70F93DA9A0013D9F50145CFE7
:1017E0009307F00F630CF7028E0A130717F8B70779
:1017F0000004B3EAFA003A94014633452A01BD4792
:10180000AA869305140063E09710171700001307CA
:10181000E75D8A04BA949C40BA9782871304F40F58
:1018200063960A0C93E424000946C1BF01451307DF
:10183000F00FB7074000B2502254A6075E07A583F9
:101840007E05D98F92540259F249624AD24A424BDC
:101850005D8D45618280CA86D689328B8947630F48
:10186000FB088D47E304FBFC854736856310FB1AB4
:1018700001478147C9B7639D090413D77501939A3E
:1018800095001377F70F91440144054B93DA9A00C2
:1018900013D9F50131F7639D0A0093E4140005465E
:1018A000A9BF63920902A1441304F00F094B31BF91
:1018B000568571249307B5FF098CB39AFA00130477
:1018C000A4F801461DBFB1441304F00F0D4BF5BD44
:1018D0004E852EC6AD249307B5FF1304A0F8B39927
:1018E000F900098C8144014BB245C5B593E434003D
:1018F0000D4621B78947D286E315FBF636851307D7
:10190000F00F81470DBF41639306F3FF13D6090122
:1019100093D80A01B3F7D900B3FADA003388570332
:10192000B389F80213570801B30A5603D6994E97A4
:1019300033061603637357011A96C167FD17B37612
:10194000F7003378F800C206C29693996600935761
:101950000701B3393001E982B2979A07B3E6D9009B
:10196000B3E9D7009397490063D9070013D719004B
:1019700093F71900B369F7002E841307F407635037
:10198000E00493F7790099C793F7F90091466383D0
:10199000D70091099397490063D90700B70700F86A
:1019A000FD17B3F9F900130704089307E00F63CBA1
:1019B000E70493976900A5831377F70FADBD8547BB
:1019C000B386E74011C76D4601478147E345D6E638
:1019D0001307E4093397E9003337E000B3D7D900A0
:1019E000D98F13F7770019C713F7F70091466303F0
:1019F000D700910713975700634C07009A07A583F8
:101A0000014715BD1307F00F814735B52E84B5B7D3
:101A1000054781470DB537068000135775019307B9
:101A2000F6FF1377F70F9305E007B3F6A700935778
:101A3000F50163FCE5009305D00963FAE50037057D
:101A400000801345F5FF3E95828001458280930515
:101A50005009D18E63CDE500130660093307E640D7
:101A600033D7E6003305E040F5F33A85828013076B
:101A7000A7F63397E600FDB7411106C622C426C279
:101A80000DCD9357F54133C4A7001D8CAA84228540
:101A90007D209307E0093387A74093076009FD8005
:101AA00063CCE702A1469377F70F63D5A6006115D3
:101AB0003314A4002604258021A0814481470144D9
:101AC000260413559400B2402244DE07FE045D8DC7
:101AD000458D9244410182809307900963DDE700C0
:101AE0009307B5019546B317F400898E3354D4009B
:101AF000B337F0005D8C954763D6A7009307B5FF19
:101B00003314F400B70600FCFD16937774003376A7
:101B1000D40085C39377F4009145638CB700110618
:101B20009317560063D707009307F009758E338724
:101B3000A7401314660025809377F70F51B7C1674C
:101B4000637CF5029307F00F1307000263EBA70015
:101B5000971700009387872DAA9788233305A740FE
:101B600082802181971700009387472CAA978823AA
:101B700061473305A7408280B7070001636DF50018
:101B80006181971700009387672AAA9788232147C6
:101B90003305A7408280418197170000938707296A
:101BA000AA97882341473305A740828039713EDADE
:101BB0002ED232D436D63AD842DC46DE9387C18064
:101BC00022CC804326CA06CEAA8409C41C4C99E3C1
:101BD0002285F9200C4454102686228536C6A52677
:101BE000F2406244D24421618280411122C406C67F
:101BF0002A844EA572A52320050023220500232454
:101C000005002322050623280500232A0500232C8E
:101C10000500214681451305C505EFE06FE09717E4
:101C20000000938767985CD0971700009387879A86
:101C30001CD4971700009387679E5CD49717000009
:101C40009387C7A000D01CD8B240224441018280B3
:101C500097150000938505D4A9A2411126C2130649
:101C600080069384F5FFB384C4024AC02E8922C43F
:101C700006C693854407592A2A8401CD23200500EE
:101C800023222501310508C4138684068145EFE02F
:101C90002FD92285B24022449244024941018280D8
:101CA0001C4DADE3411106C622C49707000093877F
:101CB00067FA1CD5938701819C43232405042326BE
:101CC0000504232805046314F50085471CCD2A84E8
:101CD0001D2848C02285052808C422852D2048C417
:101CE000484001469145113708440546A545F53D54
:101CF00048440946C945D53D85471CCCB2402244DD
:101D000041018280828041119387018126C28443F0
:101D10004AC006C69C4C22C42A8999E326854937C5
:101D2000938484048044DC40FD1763D607009C4004
:101D3000B9CF8440C5BF0317C40039E7C177850711
:101D40002322040623200400232204002324040069
:101D50005CC423280400232A0400232C0400214609
:101D600081451305C405EFE0AFCB232A0402232CE1
:101D7000040223240404232604042285B2402244BE
:101D800092440249410182801304840671BF914547
:101D90004A85E13588C051FDB1472320F90001444F
:101DA000E9BF797122D44AD052CC56CA5AC85EC60D
:101DB00006D626D24ECE2A8AAE8A1304850401495D
:101DC000054BFD5B09ECB25022544A8592540259EE
:101DD000F249624AD24A424BB24B45618280044486
:101DE00083294400FD1963D409000040E1BFDE24CB
:101DF000637BFB008397E40063877701A6855285A8
:101E0000829A3369A90093848406E9BF011126CA26
:101E100093843500F19806CE22CC4AC84EC6A10460
:101E2000B14763F3F404B14463E2B4042A89EF00D8
:101E3000304F9387418298433A8439E09387818277
:101E40009C4391E781454A850D2F23A4A182A68555
:101E50004A852527FD5963193507B1472320F90025
:101E60004A85EF00104C29A0E3D004FCB1471CC107
:101E70000145F2406244D2444249B2490561828040
:101E80001C40858F63CF0702AD4663F6F6001CC089
:101E90003E9404C031A05C406313870223A2F18208
:101EA0004A85EF0010481305B40093074400619978
:101EB0003307F5405DDF3A94898F1CC05DBF5CC37A
:101EC000C5B72287404095BF130435007198E302DF
:101ED00085FCB305A4404A854D25E31C35FBB5BF01
:101EE0001C46FD171CC663D90700184E63C5E700E2
:101EF000A9476393F500A1AF1C422E8513871700F5
:101F000018C28CA38280011122CC26CA4AC84EC6B0
:101F100052C406CE2A89AE893284B304D6007D5AD3
:101F200063149400014501A80C204E864A854D3F5C
:101F30000504E31745FFF2406244D2444249B249E6
:101F4000224A05618280357122CD26CB4AC94EC70F
:101F500006CF52C556C35AC1DEDEE2DCE6DAAA89F4
:101F6000AE843289368401C51C4D91E3153B971729
:101F700000009387A7FD6398F40C83A44900DE2436
:101F8000A18BE5C79C48F5C393070002A304F102A7
:101F90009307000302D22305F10222C6930B5002DD
:101FA000971A0000938A8AFE054C294B4A841C200C
:101FB00099C3639E770DB30C2441638D0C00E686B4
:101FC0004A86A6854E858137FD576301F51E9256D8
:101FD000E69636D21C20638B071CFD5713091400AC
:101FE00002C802CE3ECA02CCA309010482D48345B2
:101FF000090015465685EF00303113041900C24719
:1020000049E913F7070109C713070002A309E1040F
:1020100013F7870009C71307B002A309E104834639
:1020200009001307A002638EE606F2474A84814640
:102030002546182093051400130707FD6376E60A6A
:10204000ADCA3ECEBDA097170000938727F26395D7
:10205000F40083A4890025B797170000938707ED44
:10206000E39FF4F083A4C90019BFA6854E85F1252E
:1020700001DD7D55FA406A44DA444A49BA492A4AA0
:102080009A4A0A4BF65B665CD65C0D618280050459
:1020900039BF330555413315AC00C98F3EC822897D
:1020A000B9B7324793064700184336C6634707025D
:1020B0003ACE18209307E002631DF7041830930707
:1020C000A002631BF702B2470904138747009C4331
:1020D0003AC663C107023ECA2DA83307E04093E722
:1020E00027003ACE3EC8F1B7B387670385462E84F2
:1020F000BA9781B7FD57C5B7050402CA8146814723
:102100002546182093051400130707FD6376E6069D
:10211000F9F20C200D46171500001305A5E7EF0096
:10212000B01E11CD971700009387C7E61D8D93074A
:102130000004B397A700424505045D8D2AC80C2012
:10214000194617150000130525E51309140023048B
:10215000B102EF00701B35C197E7FFFF938787EA55
:1021600095E74247B2471377071009CF91073EC65C
:102170009257D2973ED21DBDB387670385462E8402
:10218000BA9741B79D07E19BA107D5B7780097069D
:102190000000938686D726860C084E85970000009F
:1021A000E7000000FD572A8AE314F5FCDE2493F7CC
:1021B0000704E39007EC125575BD78009706000000
:1021C0009386A6D426860C084E85012AE1BF797134
:1021D00056CA9C49BA8A984522D426D24ECE52CCB1
:1021E00006D64AD05AC85EC6AA892E84B284368AD8
:1021F00063D3E700BA879CC00347340419C385073B
:102200009CC01C4093F7070281C79C4089079CC073
:102210000329040013796900631A0900130B940160
:10222000FD5B5C449840998F634CF9041C408346E5
:10223000340493F70702B336D000A5EB1306340439
:10224000D2854E85829AFD576303F5041C401146E2
:102250009840998B544481446397C700B384E64007
:1022600063D3040081441C4418486354F700998FD9
:10227000BE94014969047D5B63982405014509A862
:1022800085465A86D2854E85829A631E75017D5594
:10229000B250225492540259F249624AD24A424BF5
:1022A000B24B456182800509ADBF3307D4001306E8
:1022B0000003A301C7040347540493871600A297A1
:1022C0008906A381E7049DBF85462286D2854E8577
:1022D000829AE30E65FB050945B7797122D426D2AF
:1022E0004AD04ECE06D652CC56CA5AC8B689942D7C
:1022F000930790063289AA842E8413863504638D51
:10230000F60263E2D706930780056385F61863ED4E
:10231000D700638D062093073004638EF60A930A74
:1023200024042301D404C9A0930730066385F60A68
:1023300093074006E395F6FE1C40084393F6070812
:1023400093054500C5C61C410CC363D8070013079D
:10235000D002B307F040A301E4049716000093866F
:1023600026C4294765A8930700076381F61663E52D
:10237000D7029307E0066388F6189307F006E39008
:10238000F6FA0C401C4313F8050813854700630751
:10239000080608C39C4385A893075007E383F6FE0D
:1023A000930780076388F61293073007E399F6F6E0
:1023B0001C43D04181459386470014C383AA07007C
:1023C0005685992701C53305554148C05C401CC856
:1023D000A301040461A81C43930A240493864700C4
:1023E0009C4314C32301F4048547D5B793F607042F
:1023F0001C410CC3B9DAC207C18781BF93F505043C
:1024000008C3C9D99E231307F0066386E60E971604
:1024100000009386E6B82947A30104044C400CC48D
:1024200063C5050008406D9908C099E3B28A89CD5B
:10243000B28AB3F5E702FD1AB6958C212380BA0063
:10244000B3D5E70263FFE70AA147631EF7001C400C
:10245000858B91CB58401C4863C7E7009307000366
:10246000A38FFAFEFD1A3306564110C84E87CA865E
:102470007000A2852685A13B7D5A631D450B7D55C5
:10248000B250225492540259F249624AD24A424B03
:1024900045618280A382D50497160000938646B0DA
:1024A0000C40084313F805081C411105630D080290
:1024B00008C313F7150001C793E505020CC0414797
:1024C000A1FF0C4093F5F5FD0CC0B9B79C4193E713
:1024D00007029CC193078007A302F404971600002B
:1024E000938646AD75BF13F8050408C3E30308FCE3
:1024F000C207C1837DBF97160000938666AA214755
:1025000021BFAE873DB794411C43CC4913F8060860
:10251000138547006306080008C39C438CC339A099
:1025200008C393F606049C43F5DA8EA3232804001F
:10253000B28A2DBF14485686CA8526858299E30043
:1025400045F51C40898B8DE7B2474844E35AF5F2C4
:102550003E853DB785465686CA8526858299E30025
:1025600065F3050A5C443247998FE345FAFEE9BFFB
:10257000014A930A94017D5BF5B7411122C42A8474
:102580002E8523A8018806C6EFE01FBCFD57631700
:10259000F500938701899C4391C31CC0B24022443B
:1025A00041018280411122C42E848395E50006C634
:1025B000212D634905007C48AA977CC8B24022447B
:1025C000410182805E247D777D17F98F5EA4FDB77F
:1025D000DE25011122CC26CA4AC84EC606CE93F784
:1025E0000710AA842E843289B68991C78395E500A5
:1025F0008946014609215E247D777D17F98F5EA407
:102600008315E4006244F240CE864A86B2494249CC
:102610002685D2440561DDA8411122C42E8483950C
:10262000E50006C6C92EFD575A24631AF500FD774A
:10263000FD17F98F5EA4B240224441018280856774
:10264000D98F5EA468C8C5BF8395E500F5A20111C6
:1026500022CC26CA4AC806CE4EC6AA842E89328407
:1026600009C51C4D99E3EFF0AFE39717000093877E
:10267000E78D6317F406C0401C4C1CC45E24A18B7C
:10268000C1C31C48B5CF1C4808409379F90F137992
:10269000F90F1D8D5C486346F500A2852685CD2C7B
:1026A00025E51C440505FD171CC41C4013871700B5
:1026B00018C0238037015C486388A7005E24858B9F
:1026C00081CBA9476316F900A2852685D1240DED9B
:1026D000F24062444A85D2444249B249056182804F
:1026E00097170000938787886314F400804469B7C4
:1026F0009717000093878783E310F4F8C044ADBFB9
:10270000A28526851D2841D17D59D9B7411122C402
:102710002A842E85B285368623A8018806C6EFE076
:10272000DF9EFD576317F500938701899C4391C392
:102730001CC0B24022444101828041119387C18074
:1027400026C2844322C44AC006C62A892E8491C464
:102750009C4C81E72685EFF0AFD497070000938764
:10276000E77E631BF402C0400317C4009317070100
:10277000C18393F68700ADEA93F6070195EEA5476E
:102780002320F900136707045AA47D55B240224460
:102790009244024941018280970700009387077D98
:1027A0006314F4008044C9B7970700009387077843
:1027B000E31CF4FAC0444DBF918B9DC34C5889C9AA
:1027C000930744046384F5004A85A92E232A040252
:1027D0005E242322040093F7B7FD5EA41C481CC0AE
:1027E0005E2493E787005EA41C4899EB5E241307E0
:1027F000002093F707286385E700A2854A85AD2C62
:102800005E2413F717001DC35C4823240400B3079C
:10281000F0401CCC1C480145B5FB8317C40013F7DE
:1028200007082DD793E707045EA485B7898B014776
:1028300091E3584818C4F9BF411122C42A842E8557
:1028400023A8018806C60121FD576317F500938769
:1028500001899C4391C31CC0B24022444101828043
:10286000DE25011122CC26CA06CE4AC84EC613F771
:102870008700AA842E8479EBD841634DE000B841EB
:10288000634AE0000145F2406244D2444249B24901
:102890000561828058547DD703A9040093963701BF
:1028A00023A0040063DB060670485E24918B99C761
:1028B0005C401D8E5C5899C33C401D8E5C540C508E
:1028C000814626858297FD575A24631DF500944062
:1028D000F54763E8D706B70740208507B3D7D70089
:1028E000858BA5C31C48232204001CC09317370105
:1028F00063D80700FD576314F5009C4091E368C856
:102900004C5823A02401BDDD930744046384F500E3
:102910002685092C232A0402B5B70C5001468546AA
:1029200026850297FD572A86E311F5F89C40B5DF0E
:1029300075476385E70059476393E70423A02401A3
:1029400091B7136707045AA47D5535BF83A90501C4
:10295000E38A09F203A905008D8B23A03501330911
:102960003941014791E3D84918C4E35D20F11C5473
:102970000C50CA864E86268582976347A0005E2447
:1029800093E707045EA4C9B7AA993309A940F1BF28
:102990009C49A5C3011122CC06CE2A8419C51C4D21
:1029A00089E72EC6EFF0CFAFB245970700009387B7
:1029B000E759639BF5004C408397C50095C7228576
:1029C0006244F240056169BD970700009387075A8A
:1029D0006394F5000C44CDB7970700009387075523
:1029E000E39CF5FC4C44C9BFF240624401450561DB
:1029F000828001458280411122C42A842E85B285BD
:102A0000368623A8018806C68D24FD576317F50076
:102A1000938701899C4391C31CC0B2402244410169
:102A200082801971A6DAAE848395E500A2DC86DE89
:102A3000328463DB0500DE2423A0060093F7070839
:102A40009DE39307004015A0300836C66522B246C4
:102A5000E34305FE7247BD67F98F7977BA9793B75D
:102A600017009CC2F9BF930700041CC0F6506654BF
:102A7000D654014509618280DE25011122CC06CEA3
:102A800026CA4AC8898B2E8489CF930774041CC038
:102A90001CC885475CC8F2406244D2444249056183
:102AA000828074003000AA84AD3FA2452A89268521
:102AB000EFF0CFB519E98317C40013F7072061FFC2
:102AC000F19B93E727005EA4C9B797F7FFFF9387B1
:102AD00067189CD45E2408C008C893E707085EA462
:102AE000A2475CC8B24799CB8315E4002685052A26
:102AF00011C55E24F19B93E717005EA45E24336941
:102B0000F9002316240141BF93F5F50F2A966314AB
:102B1000C500014582801C21E38EB7FE0505C5BFB7
:102B200082808280CDC183A7C5FF411122C406C621
:102B300026C21384C5FF63D307003E94AA84CD3711
:102B4000938741829C4399EB2322040023A2818234
:102B50002244B240268592444101E1B7637EF400ED
:102B600014403307D4006396E7009843DC4336975C
:102B700018C05CC0E1BFBA87D84319C3E37DE4FE47
:102B800094433386D700631F86001040B29694C3E7
:102B90003386D700E31EC7FA10435843B29694C356
:102BA000D8C37DB76375C400B1479CC055B710400A
:102BB000B306C4006316D70014435843B29614C03A
:102BC00058C0C0C371B78280411122C42A842E85A7
:102BD000B285368623A8018806C67128FD5763177B
:102BE000F500938701899C4391C31CC0B2402244E5
:102BF00041018280411122C42A842E85B28523A8F6
:102C0000018806C6B920FD576317F500938701892F
:102C10009C4391C31CC0B2402244410182804111B7
:102C200022C42A842E8523A8018806C60D28FD57B4
:102C30006317F500938701899C4391C31CC0B24080
:102C40002244410182809307800523A8F1887D55A5
:102C500082809307800523A8F1887D5582809307A1
:102C6000800523A8F188014582809307800523A869
:102C7000F1887D5582809307800523A8F1887D55D2
:102C8000828000006D707536303530B3F5CABCBB3C
:102C9000AFB3C9B9A60000006D707536303530B3DA
:102CA000F5CABCBBAFCAA7B0DC0000006D707536BA
:102CB000303530CEC2B6C8C4A3BFE9B3F5CABCBB79
:102CC000AFB3C9B9A60000006D707536303530CE8F
:102CD000C2B6C8B3F5CABCBBAFCAA7B0DC0000001F
:102CE0006D707536303530CDD3C2DDD2C7C4A3BFC9
:102CF000E9B3F5CABCBBAFB3C9B9A6006D707536F0
:102D0000303530CDD3C2DDD2C7B3F5CABCBBAFCAF4
:102D1000A7B0DC006D707536303530BCD3CBD9B67A
:102D2000C8C4A3BFE9B3F5CABCBBAFB3C9B9A60059
:102D30006D707536303530BCD3CBD9B6C8B3F5CA53
:102D4000BCBBAFCAA7B0DC00B5B1C7B0CEC2B6C875
:102D5000CAC725642F722F6E000000000000AA432E
:102D6000B81E12420000C84226E9FFFF50E8FFFFEC
:102D700020E9FFFF58E8FFFF20E9FFFF1EE8FFFF03
:102D800020E9FFFF58E8FFFF50E8FFFF50E8FFFF92
:102D90001EE8FFFF58E8FFFF5EE8FFFF5EE8FFFF69
:102DA0005EE8FFFF1EE8FFFF10E8FFFF10E8FFFFEF
:102DB000E0E8FFFFBCE9FFFFE0E8FFFFDEE7FFFF21
:102DC000E0E8FFFFBCE9FFFF10E8FFFF10E8FFFFAE
:102DD000DEE7FFFFBCE9FFFF1EE8FFFF1EE8FFFF85
:102DE0001EE8FFFFDEE7FFFF1EEBFFFF70EAFFFFBD
:102DF00070EAFFFF6EEAFFFF74EAFFFF74EAFFFF6D
:102E000044EAFFFF6EEAFFFF74EAFFFF44EAFFFFB8
:102E100074EAFFFF6EEAFFFF0CEBFFFF0CEBFFFF16
:102E20000CEBFFFF44EAFFFF000102020303030370
:102E3000040404040404040405050505050505054A
:102E4000050505050505050506060606060606062A
:102E50000606060606060606060606060606060612
:102E600006060606060606060707070707070707FA
:102E700007070707070707070707070707070707E2
:102E800007070707070707070707070707070707D2
:102E900007070707070707070707070707070707C2
:102EA00007070707070707070808080808080808AA
:102EB0000808080808080808080808080808080892
:102EC0000808080808080808080808080808080882
:102ED0000808080808080808080808080808080872
:102EE0000808080808080808080808080808080862
:102EF0000808080808080808080808080808080852
:102F00000808080808080808080808080808080841
:102F10000808080808080808080808080808080831
:102F20000808080808080808000000000000000061
:102F30000000000000000000000000000000000091
:102F40000000000000000000000000000000000081
:102F50000000000000000000000000000000000071
:102F60000000000000000000000000000000000061
:102F70000000000000000000000000000000000051
:102F80000000000000000000232D302B2000000076
:102F9000686C4C0065666745464700003031323347
:102FA0003435363738394142434445460000000045
:102FB00030313233343536373839616263646566AF
:042FC000000000000D
:102FC40000000000000000000102030406070809D5
:102FD40000000000010203040102030406070809BB
:102FE40000000000482F0000682F0000282F000078
:102FF40000000000000000000000000000000000CD
:1030040000000000000000000000000000000000BC
:1030140000000000000000000000000000000000AC
:10302400000000000000000000000000000000009C
:10303400000000000000000000000000000000008C
:1030440000D8B8050204060814010020200000205E
:08305400200000200000000034
:00000001FF
